:100000000C943C010C9464010C9464010C94640104
:100010000C9464010C9464010C9464010C946401CC
:100020000C9464010C9464010C9438070C94AA0796
:100030000C9464010C9464010C9464010C946401AC
:100040000C9464010C9464010C9464010C9464019C
:100050000C94240A0C9464010C9464010C94DA0945
:100060000C9464010C9464010C9464010C9464017C
:100070000C9464010C9464010C9464010C9464016C
:100080000C9464010C9464010C9464010C9464015C
:100090000C9464010C9464010C9464010C9464014C
:1000A0000C9464010C9464010C946401A906AC06E0
:1000B0009B069F06A306CD06CD06CD06B006B40668
:1000C000B806BE06C206CD06C80600000000230022
:1000D000260029002C002F000000000200090F005C
:1000E00000030401000C00000000000000000000FC
:1000F0000000000000000000000000000000002AD6
:100100002B2800000000000000000000000000009C
:10011000000000000000002C9EB4A0A1A2A434A600
:10012000A7A5AE362D3738271E1F202122232425D0
:1001300026B333B62EB7B89F8485868788898A8B85
:100140008C8D8E8F909192939495969798999A9B77
:100150009C9D2F3130A3AD350405060708090A0B15
:100160000C0D0E0F101112131415161718191A1B57
:100170001C1DAFB1B0B500080B000202020100095E
:100180000400000102020000052400100105240102
:10019000010104240206052406000107058103105D
:1001A000004009040100020A0000000705020240A5
:1001B0000000070583024000000403090412010047
:1001C00002EF020140412336800001010203014198
:1001D000726475696E6F204C4C430041726475699E
:1001E0006E6F204C656F6E6172646F0000000000DE
:1001F000250028002B002E00310000000000240004
:1002000027002A002D003000040404040403040520
:1002100002020202040302020202060606060606A3
:100220000404020202040404080201104080401089
:10023000204080408008020401804020100201100C
:1002400080102040402005010906A1018502050714
:1002500019E029E71500250175019508810295012E
:1002600075088103950675081500256505071900B1
:1002700029658100C0004B0A11241FBECFEFDAE0D0
:10028000DEBFCDBF22E0A6E5B1E001C01D92A233E2
:10029000B207E1F711E0A0E0B1E0ECECF7E102C059
:1002A00005900D92A635B107D9F711E0CCE3D1E066
:1002B00004C02197FE010E94D90BCB33D107C9F7A7
:1002C0000E94AA0A0C94E40B0C940000FC0180919B
:1002D000C701811103C08FEF9FEF08959FB7F89476
:1002E00082E08093E9002091F20030E012161306BC
:1002F00014F421E030E02115310559F0289884E606
:100300008093C6018091F10080838091F200882360
:1003100019F09FBFC90108958BE68093E800F9CFDB
:100320004091BD015091BE012091BB013091BC01B3
:1003300042175307B4F49091E8009570E1F390915F
:10034000E80092FD19C08093F1008091BD01909169
:10035000BE0101968F739927892B19F48EEF809334
:10036000E8008091BD019091BE0101969093BE017D
:100370008093BD0181E0089580E00895CF92DF92DF
:10038000EF92FF920F931F93CF93DF931F92CDB7FE
:10039000DEB7182F062FE42E862F880F8E5F9983E5
:1003A0000E94900183E00E949001F12EC12E99815C
:1003B000D92E8C2D8F19801798F4F601E7FE02C014
:1003C000849101C080810E949001182F80E00E94DA
:1003D00090018123FFEFCF1ADF0A8111EACF01C01C
:1003E00081E00F90DF91CF911F910F91FF90EF90DF
:1003F000DF90CF900895DF92EF92FF920F931F93BB
:10040000CF93DF93D82E8A017B01E40EF51EEB011A
:10041000CE15DF0571F0D7FE03C0FE01849101C047
:1004200088810E94900121968111F2CF8FEF9FEF7A
:1004300001C0C801DF91CF911F910F91FF90EF9004
:10044000DF9008952FB7F89487708093E90090911A
:10045000E800892F807295FF04C09091F20080E43B
:10046000891B2FBF0895615030F02091F100FC01ED
:1004700020830196F8CF289884E68093C6010895DA
:10048000CF92DF92EF92FF920F931F93CF93DF9360
:100490006C017A018B01C0E0D0E0CE15DF0589F058
:1004A000D8016D918D01D601ED91FC910190F08103
:1004B000E02DC6010995892B11F47E0102C0219619
:1004C000ECCFC701DF91CF911F910F91FF90EF907B
:1004D000DF90CF9008958091B30181110DC082E02B
:1004E0008093AF0184E08093B0011092B20110922A
:1004F000B10181E08093B3018FEA91E008950F93F9
:100500001F93CF93DF931F92CDB7DEB782E089832D
:1005100042E450E067E771E080E80E94FB010E943E
:100520006B02DC0112960D911C91139701151105B8
:1005300069F0D801ED91FC910280F381E02DBE01BC
:100540006F5F7F4FC801099597FF07C089810F90A2
:10055000DF91CF911F910F910895F80100851185CA
:10056000E5CFCF93DF931F92CDB7DEB76983DC0170
:10057000ED91FC910280F381E02D41E050E0BE015D
:100580006F5F7F4F09950F90DF91CF91089583E0C2
:100590008093E9008091F200882319F08AE3809328
:1005A000E800089583E00E94220290E00895CF932E
:1005B000DF931F92CDB7DEB7FC018485958597FD4B
:1005C00005C02FEF3FEF358724870BC0CE01019682
:1005D0000E946601019719F4898190E002C08FEFB3
:1005E0009FEF0F90DF91CF9108950F931F93CF93BB
:1005F000DF931F92CDB7DEB78C01FC018485958512
:1006000097FF0EC0CE0101960E946601019719F472
:10061000298130E002C02FEF3FEFF80135872487B2
:10062000F801848595850F90DF91CF911F910F91EF
:100630000895FC018485958597FD0BC09FB7F894BC
:1006400082E08093E9008091F2009FBF90E00196E4
:1006500008959FB7F89482E08093E9008091F200BA
:100660009FBF90E008953FB7F8948091AB019091BF
:10067000AC01A091AD01B091AE0126B5A89B05C01B
:100680002F3F19F00196A11DB11D3FBFBA2FA92F11
:10069000982F8827820F911DA11DB11DBC01CD018E
:1006A00042E0660F771F881F991F4A95D1F708957A
:1006B000CF92DF92EF92FF920E9433036B017C0195
:1006C0000E943303DC01CB018C199D09AE09BF09DF
:1006D000883E9340A105B10598F3FF90EF90DF901D
:1006E000CF9008957F928F929F92AF92BF92CF92B8
:1006F000DF92EF92FF920F931F93CF93DF93C82E59
:100700008B017A018091C701811103C08FEF9FEFA8
:1007100071C08091C10180FF05C08091E0008260BE
:100720008093E000CE2DDF2DD12C8AEF882E8C2DEA
:100730008770B82E8C2D8072A82E8C2D8074982EE8
:100740009AE3792E209709F44EC08C2D0E94220244
:10075000282F811106C08A948820C1F20E94580374
:10076000F1CF90E0C817D9070CF42C2F3FB7F894BD
:10077000B092E9008091E80085FF33C0822F90E0BD
:10078000C81BD90BAA2029F02150A8F01092F10023
:10079000FBCFF801C7FE07C0215058F044914093A9
:1007A000F1003196F9CF215020F041914093F100B2
:1007B000FACF080F191FDD2019F07092E8000AC067
:1007C0008091E80085FD08C07092E800DD24D39494
:1007D000209739F0D12C05C0209719F49110709210
:1007E000E8003FBFAFCFD110B0CF5D9884E68093D3
:1007F000BF01C701DF91CF911F910F91FF90EF9043
:10080000DF90CF90BF90AF909F908F907F90089592
:10081000CF92DF92EF92FF920F931F93CF93DF93CC
:100820001F92CDB7DEB77C016B0182E0898341E086
:1008300050E0BE016F5F7F4FF70183810E9472031A
:100840008C0197FD0CC0F701838148E050E0B601B0
:1008500080640E94720397FD02C0800F911F0F9069
:10086000DF91CF911F910F91FF90EF90DF90CF908C
:100870000895CF93DF93EC0180911201882331F02A
:1008800083E00E9472031816190634F081E090E0AC
:100890009B838A8380E090E0DF91CF910895DC0113
:1008A000FB0112968C91129790E02481358182177A
:1008B0009307D1F491818081813A31F481E09130C4
:1008C00091F0933089F411C0813271F49B3021F49E
:1008D00082811F968C9305C09A3031F482815096A4
:1008E0008C9381E00895089580E00895DC01FB0178
:1008F00088E4808389E4818384E482831D969C91CB
:100900001D979F709F5B93831D968D919C911E9761
:1009100024E0969587952A95E1F78F708F5B848305
:1009200085E00895EF92FF920F931F93CF93DF938B
:10093000FB012081213851F52381223239F5DC0178
:1009400012962C9130E04481558142175307F1F4FF
:10095000EC010B851C85E12CF12C0115110591F0A2
:10096000F801448155816281738180E80E94FB0116
:100970008F3FFFEF9F0769F0E80EF91ED8010D9138
:100980001C91EBCF81E08F87C70105C080E090E02C
:1009900002C08FEF9FEFDF91CF911F910F91FF90DA
:1009A000EF900895CF93DF93CDB7DEB769970FB679
:1009B000F894DEBF0FBECDBFFC01DB018C918F5FD1
:1009C0008C93BE016F5F7F4F89E1DB011D928A9599
:1009D000E9F729E0298384E08A8391E09D8383E01D
:1009E0008E832A8721E22B879C879D879F8722E21F
:1009F000288B27E02B8B25E02C8B8E8B20E430E09E
:100A0000388F2F8B998F82818B8395858685998BE3
:100A10008A8B838180688D8B49E150E080E00E9461
:100A2000FB0169960FB6F894DEBF0FBECDBFDF9114
:100A3000CF910895CF93DF9380919E0181116BC078
:100A400081E0809391018093920127E931E0309316
:100A5000940120939301109296011092950124E243
:100A600031E030938E0120938D0110929901109204
:100A7000980110929B0110929A0180939C0180939F
:100A80009D0181EC809397010E946B02FC01218102
:100A90008091910190E0820F911D089724F081E0F0
:100AA00080939E0138C0A281B381109729F48DE80C
:100AB00091E0938382830EC018968D919C91199733
:100AC000009711F0DC01F8CF8DE891E019969C9326
:100AD0008E931897808180938F01818180939001FC
:100AE000908180919201890F808380E090919101A3
:100AF0008917A8F69181A92FB0E0A050BF4FC091EF
:100B00009301D0919401C80FD11D28812C939F5F30
:100B100091838F5FEBCF8DE891E0DF91CF910895C6
:100B2000FC0182818F5BFB01808381E00895CF937C
:100B3000DF93DC01683810F0685825C0E62FF0E03C
:100B400067FF12C0E058F10981E090E001C0880F12
:100B5000EA95EAF7809514969C9114978923149648
:100B60008C93149760E00FC0E950FF4F64916623A7
:100B700011F167FF08C014968C9114978D7F14961D
:100B80008C9314976F77FD01369686E0662321F0EB
:100B90009081961301C01082815031968111F6CF59
:100BA000ED010E941A05BE016C5F7F4F0E94080490
:100BB00081E090E002C080E090E0DF91CF91089565
:100BC000CF93DF93DC01683810F068582DC0E62F12
:100BD000F0E067FF11C0E058F10981E090E001C04A
:100BE000880FEA95EAF714969C911497892B14962E
:100BF0008C93149760E018C0E950FF4F6491611125
:100C000009C081E090E013969C938E93129780E048
:100C100090E043C067FF08C014968C9114978260DF
:100C200014968C9314976F7716968C911697861757
:100C300051F117968C911797861729F118968C9178
:100C40001897861701F119968C9119978617D9F084
:100C50001A968C911A978617B1F01B968C911B9758
:100C6000861789F0FD01369680E090E021912111F0
:100C700005C0FD01E80FF91F668305C001968630A7
:100C80009105A1F7BECFED010E941A05BE016C5F70
:100C90007F4F0E94080481E090E0DF91CF9108959A
:100CA000EF92FF921F93CF93DF93EC01162F0E94D8
:100CB000E0057C01612FCE010E949705C7019927AD
:100CC000DF91CF911F91FF90EF900895089580E0FC
:100CD00090E0089508958F929F92AF92BF92EF9205
:100CE000FF920F931F93CF93DF939CE2E92E91E045
:100CF000F92EC6E5D1E005E111E0F701208130E0F1
:100D0000F901E852FF4F8491F901E95DFD4F4491EB
:100D1000F901E85FFD4F2491222309F44FC0882395
:100D2000E1F190E0FC013197EF30F105B0F5EA5ABE
:100D3000FF4F0C94D90B809180008F7707C0809172
:100D400080008F7D03C080918000877F809380002A
:100D500024C084B58F7702C084B58F7D84BD1DC04B
:100D6000809190008F7707C0809190008F7D03C0A5
:100D700080919000877F809390000FC08091C00089
:100D80008F7703C08091C0008F7D8093C00005C025
:100D90008091C200877F8093C200E22FF0E0EE0FC7
:100DA000FF1FE653FF4FA591B491EC914E2331E024
:100DB00020E009F430E0832F922F02C080E090E021
:100DC000FC0121E0E2272E2F3881E317A9F13FB77C
:100DD000F8944091A7015091A8016091A9017091E8
:100DE000AA013FBF89809A80AB80BC80481959090D
:100DF0006A097B094A31510561057105E8F0E8830C
:100E00003FB7F8944091A7015091A8016091A901C2
:100E10007091AA013FBF49835A836B837C83F80199
:100E20006081F7013081363009F4282F86E292E0A4
:100E30002223C9F00E94E0058FEFE81AF80A2596F0
:100E40000F5F1F4FE7E3EE16E1E0FE0609F055CF16
:100E5000DF91CF911F910F91FF90EF90BF90AF90D6
:100E60009F908F9008950E949705E6CF0E94DF0B18
:100E70001F920F920FB60F9211248F939F93809120
:100E8000E1009091E100937F9093E10083FF0FC018
:100E90001092E90091E09093EB001092EC0092E345
:100EA0009093ED001092C70198E09093F00082FFBC
:100EB00020C093E09093E9009091F200992319F0FB
:100EC0009AE39093E8009091BF01992339F09091B3
:100ED000BF0191509093BF01992389F19091C60170
:100EE000992339F09091C60191509093C6019923AE
:100EF00041F184FF10C08091E2008E7E816080937A
:100F0000E2008091E1008F7E8093E1008091C10139
:100F10008E7E806111C080FF16C08091E2008E7EBF
:100F200080618093E2008091E1008E7E8093E100F9
:100F30008091C1018E7E81608093C10104C05D9A61
:100F4000CDCF289AD6CF9F918F910F900FBE0F9043
:100F50001F9018951F920F920FB60F921124CF92E7
:100F6000DF92EF92FF920F931F932F933F934F9334
:100F70005F936F937F938F939F93AF93BF93EF9301
:100F8000FF93CF93DF93CDB7DEB76C97DEBFCDBFB6
:100F90001092E9008091E80083FFEDC168E0CE0186
:100FA00045960E94330282EF8093E8008D8987FF87
:100FB00005C09091E80090FFFCCF03C09EEF909396
:100FC000E800982F907609F0C6C09E892F89188D69
:100FD00091110CC0803829F48091C2018093F100F6
:100FE00002C01092F1001092F10048C1422F50E06F
:100FF000512B913051F4811141C14130510509F01B
:101000003DC18091C2018D7F0BC0933061F481118D
:1010100035C14130510509F031C18091C201826072
:101020008093C2012BC1953041F48091E80080FF8C
:10103000FCCF20682093E30021C1963009F05FC007
:10104000EB8CFC8C1092E9001092BE011092BD0155
:10105000123091F51092BC011092BB010E947F02E8
:1010600099E0BE016F5F7F4FDB01E92F1D92EA958A
:10107000E9F799831A8391E09E8390EA98879AEF23
:1010800099872091BD013091BE01275F3F4F3C837E
:101090002B838D831092E9001092BE011092BD0146
:1010A000F092BC01E092BB0149E050E080E00E9478
:1010B000FB010E947F02E2C0F092BC01E092BB0102
:1010C0000E946B02DC011296ED90FC901397E114E4
:1010D000F10409F4C0C0D701ED91FC910480F581C1
:1010E000E02DBE016B5E7F4FC7010995009719F097
:1010F0000CF0C4C0C7C0F701E084F184E8CF97309A
:1011000009F4C0C0983021F481E08093F100B6C0AA
:10111000993009F0B3C0837009F0B4C0E1E0F1E0A8
:1011200081E021E036E39081992361F08093E9002A
:101130002093EB0091919093EC003093ED008F5F42
:10114000873089F78EE78093EA001092EA008F8952
:101150008093C70193C08B8D9C8D1092E9001092F3
:10116000BE011092BD019093BC018093BB01898D9B
:10117000811156C08E899D89913A59F4813209F0C6
:1011800081C047E050E06BE071E080E00E94FB012D
:1011900075C0913209F076C0833289F4888D90E071
:1011A000982F88272F89822BA0E0B0E08093070139
:1011B00090930801A0930901B0930A015FC08032A7
:1011C00069F48091E80082FFFCCF67E08BE091E05A
:1011D0000E9433028BEF8093E80006C0823209F050
:1011E0004DC08F89809312018091C001882319F02E
:1011F000EEEFFAE002C0E0E0F8E080910B019091A0
:101200000C01A0910D01B0910E01803B9440A1050D
:10121000B10509F07BC08091120180FF93C076C0B8
:101220000E946B02DC0112960D911C91139701151F
:10123000110541F1D801ED91FC910190F081E02D73
:10124000BE016B5E7F4FC8010995811117C0F8017F
:1012500000851185ECCF113009F44EC0133091F4A4
:101260008F89882309F445C0823081F440E860E129
:101270008BED91E00E94BE01882321F08EEF8093D8
:10128000E80079C081E28093EB0075C0813029F4D9
:1012900040E86BE08FEC91E0EDCF833099F70E944E
:1012A0006B02DC011296ED90FC9013978E010F5F9C
:1012B0001F4F6801E114F10479F0D701ED91FC9121
:1012C0000680F781E02DB801C7010995080F111DAF
:1012D000F701E084F184EECFD8011C92F601019071
:1012E0000020E9F73197BF016C197D0940E0C60184
:1012F000C1CF69EB71E002C06DEB71E06115710562
:1013000009F2FB01449150E080E840CF0FB6F89419
:10131000A8958091600088618093600010926000C1
:101320000FBEA895EE3F2AE0F20739F08091FE0A41
:101330009091FF0A91838083A1CF1092FF0A1092AF
:10134000FE0A9CCFEE3F8AE0F80731F08081918160
:101350009093FF0A8093FE0A87E797E79183808343
:101360009BE088E10FB6F894A895809360000FBECB
:101370009093600083CF6C960FB6F894DEBF0FBEDB
:10138000CDBFDF91CF91FF91EF91BF91AF919F9131
:101390008F917F916F915F914F913F912F911F910D
:1013A0000F91FF90EF90DF90CF900F900FBE0F90B6
:1013B0001F9018951F920F920FB60F9211242F9322
:1013C0003F938F939F93AF93BF938091A701909189
:1013D000A801A091A901B091AA013091A60123E032
:1013E000230F2D3720F40196A11DB11D05C026E85D
:1013F000230F0296A11DB11D2093A6018093A70182
:101400009093A801A093A901B093AA018091AB0188
:101410009091AC01A091AD01B091AE010196A11DDA
:10142000B11D8093AB019093AC01A093AD01B0933B
:10143000AE01BF91AF919F918F913F912F910F90EE
:101440000FBE0F901F9018951F920F920FB60F921C
:1014500011242F933F934F935F936F937F938F93B9
:101460009F93AF93BF93EF93FF93E0911301F0919C
:1014700014010995FF91EF91BF91AF919F918F91C9
:101480007F916F915F914F913F912F910F900FBE80
:101490000F901F9018951092CB011092CA0188EE00
:1014A00093E0A0E0B0E08093CC019093CD01A093B5
:1014B000CE01B093CF018BE391E09093C90180936B
:1014C000C8018FEF9FEF9093D5018093D4011092C4
:1014D0002902109228028DE491E0909327028093D4
:1014E000260280911E02811113C0109219021092DF
:1014F000180286E492E090931B0280931A028FE216
:1015000090E090931D0280931C0281E080931E0264
:101510000E941A05FC01A385B485109729F488E17F
:1015200092E0948783870BC08D919C9111970097CF
:1015300011F0DC01F9CF88E192E08D939C93258531
:10154000368580911C0290911D02820F931F968711
:1015500085870895789484B5826084BD84B5816060
:1015600084BD85B5826085BD85B5816085BD80916E
:101570006E00816080936E001092810080918100E6
:1015800082608093810080918100816080938100DE
:1015900080918000816080938000809191008260C2
:1015A000809391008091910081608093910080915F
:1015B00090008160809390008091C100846080934E
:1015C000C1008091C10082608093C1008091C10000
:1015D00081608093C1008091C30081608093C300CB
:1015E0008091C00082608093C0008091C2008160C1
:1015F0008093C20080917A00846080937A00809109
:101600007A00826080937A0080917A008160809372
:101610007A0080917A00806880937A001092C701E6
:101620001092C2011092C1018091D7008160809315
:10163000D70080EA8093D80089B5806189BD89B5DB
:10164000826089BD09B400FEFDCF0E9458038091DD
:10165000D8008F7C80618093D8008091E000807FEB
:101660008093E0008091E1008E7E8093E1008DE028
:101670008093E200559A209AEEEFFFE785919491CE
:101680008B3F9C4D19F481E08093C0018FEF9FEF59
:101690009093D5018093D40184E690E0A0E0B0E07F
:1016A0008093CC019093CD01A093CE01B093CF0154
:1016B000ACE2B1E02DE232E04EE052E06BE06A0FC6
:1016C0008D91863009F5F9017491FA01849188238E
:1016D00009F43EC090E0880F991FFC01E650FE4FD0
:1016E000C591D491FC01E451FE4F05911491EFB7DF
:1016F000F8949881872F809598239883E8019881A2
:1017000089238883EFBF24C090E0FC01E95DFD4F91
:101710007491FC01E85FFD4F84918823C9F090E04B
:10172000880F991FFC01E650FE4FC591D49184515A
:101730009E4FFC01059114919FB7F894E881872F83
:1017400080958E238883E801E8817E2B78839FBF74
:101750006A13B6CF80E1809381001092800081E00F
:101760008093C50120E43CE93093C4012093C30178
:10177000309387002093860091E1909381002BE6BF
:1017800036E0309314012093130180936F00109280
:10179000810010928500109284008091C5018061C3
:1017A00080938100C0E0D0E02097F1F30E94000018
:1017B000FBCFEE0FFF1F0590F491E02D099481E01F
:0C17C00090E0F8940C94E40BF894FFCF38
:1017CC0000C18081000000FFFFFFFF00E10000006E
:1017DC000000006A06D8D780843135B0756471B1C9
:1017EC00000000004F04D204920476040B050C0494
:1017FC000A0D061213151600000000B1023904D2AE
:10180C0002C7021903D702F502000000005006407F
:06181C00026706660600EB
:00000001FF
